{
  "contractName": "MultiSigWallet",
  "abi": [
    {
      "constant": true,
      "inputs": [
        {
          "name": "",
          "type": "uint256"
        }
      ],
      "name": "owners",
      "outputs": [
        {
          "name": "",
          "type": "address"
        }
      ],
      "payable": false,
      "stateMutability": "view",
      "type": "function"
    },
    {
      "constant": true,
      "inputs": [
        {
          "name": "",
          "type": "address"
        }
      ],
      "name": "isOwner",
      "outputs": [
        {
          "name": "",
          "type": "bool"
        }
      ],
      "payable": false,
      "stateMutability": "view",
      "type": "function"
    },
    {
      "constant": true,
      "inputs": [
        {
          "name": "",
          "type": "uint256"
        },
        {
          "name": "",
          "type": "address"
        }
      ],
      "name": "isConfirmed",
      "outputs": [
        {
          "name": "",
          "type": "bool"
        }
      ],
      "payable": false,
      "stateMutability": "view",
      "type": "function"
    },
    {
      "constant": true,
      "inputs": [
        {
          "name": "",
          "type": "uint256"
        }
      ],
      "name": "transactions",
      "outputs": [
        {
          "name": "to",
          "type": "address"
        },
        {
          "name": "value",
          "type": "uint256"
        },
        {
          "name": "data",
          "type": "bytes"
        },
        {
          "name": "executed",
          "type": "bool"
        },
        {
          "name": "confirmationsNr",
          "type": "uint256"
        }
      ],
      "payable": false,
      "stateMutability": "view",
      "type": "function"
    },
    {
      "constant": true,
      "inputs": [
        {
          "name": "",
          "type": "address"
        }
      ],
      "name": "funds",
      "outputs": [
        {
          "name": "",
          "type": "uint256"
        }
      ],
      "payable": false,
      "stateMutability": "view",
      "type": "function"
    },
    {
      "constant": true,
      "inputs": [],
      "name": "confirmationsRequired",
      "outputs": [
        {
          "name": "",
          "type": "uint256"
        }
      ],
      "payable": false,
      "stateMutability": "view",
      "type": "function"
    },
    {
      "inputs": [
        {
          "name": "_owners",
          "type": "address[]"
        },
        {
          "name": "_confirmationsRequired",
          "type": "uint256"
        }
      ],
      "payable": false,
      "stateMutability": "nonpayable",
      "type": "constructor"
    },
    {
      "anonymous": false,
      "inputs": [
        {
          "indexed": false,
          "name": "txIndex",
          "type": "uint256"
        },
        {
          "indexed": false,
          "name": "creator",
          "type": "address"
        },
        {
          "indexed": false,
          "name": "to",
          "type": "address"
        },
        {
          "indexed": false,
          "name": "value",
          "type": "uint256"
        }
      ],
      "name": "TransactionSubmitted",
      "type": "event"
    },
    {
      "anonymous": false,
      "inputs": [
        {
          "indexed": false,
          "name": "txIndex",
          "type": "uint256"
        },
        {
          "indexed": false,
          "name": "confirmedBy",
          "type": "address"
        }
      ],
      "name": "TransactionConfirmed",
      "type": "event"
    },
    {
      "anonymous": false,
      "inputs": [
        {
          "indexed": false,
          "name": "to",
          "type": "address"
        },
        {
          "indexed": false,
          "name": "value",
          "type": "uint256"
        },
        {
          "indexed": false,
          "name": "executedBy",
          "type": "address"
        }
      ],
      "name": "TransactionExecuted",
      "type": "event"
    },
    {
      "anonymous": false,
      "inputs": [
        {
          "indexed": false,
          "name": "txIndex",
          "type": "uint256"
        },
        {
          "indexed": false,
          "name": "revokedBy",
          "type": "address"
        }
      ],
      "name": "ConfirmationRevoked",
      "type": "event"
    },
    {
      "anonymous": false,
      "inputs": [
        {
          "indexed": false,
          "name": "from",
          "type": "address"
        },
        {
          "indexed": false,
          "name": "value",
          "type": "uint256"
        },
        {
          "indexed": false,
          "name": "balance",
          "type": "uint256"
        }
      ],
      "name": "Deposit",
      "type": "event"
    },
    {
      "constant": false,
      "inputs": [
        {
          "name": "_to",
          "type": "address"
        },
        {
          "name": "_value",
          "type": "uint256"
        },
        {
          "name": "_data",
          "type": "bytes"
        }
      ],
      "name": "submitTransaction",
      "outputs": [],
      "payable": false,
      "stateMutability": "nonpayable",
      "type": "function"
    },
    {
      "constant": false,
      "inputs": [
        {
          "name": "_txIndex",
          "type": "uint256"
        }
      ],
      "name": "confirmTransaction",
      "outputs": [],
      "payable": false,
      "stateMutability": "nonpayable",
      "type": "function"
    },
    {
      "constant": false,
      "inputs": [
        {
          "name": "_txIndex",
          "type": "uint256"
        }
      ],
      "name": "executeTransaction",
      "outputs": [],
      "payable": false,
      "stateMutability": "nonpayable",
      "type": "function"
    },
    {
      "constant": false,
      "inputs": [
        {
          "name": "_txIndex",
          "type": "uint256"
        }
      ],
      "name": "revokeConfirmation",
      "outputs": [],
      "payable": false,
      "stateMutability": "nonpayable",
      "type": "function"
    },
    {
      "constant": true,
      "inputs": [],
      "name": "transactionCount",
      "outputs": [
        {
          "name": "",
          "type": "uint256"
        }
      ],
      "payable": false,
      "stateMutability": "view",
      "type": "function"
    },
    {
      "constant": false,
      "inputs": [],
      "name": "deposit",
      "outputs": [
        {
          "name": "",
          "type": "uint256"
        }
      ],
      "payable": true,
      "stateMutability": "payable",
      "type": "function"
    },
    {
      "constant": true,
      "inputs": [],
      "name": "balance",
      "outputs": [
        {
          "name": "",
          "type": "uint256"
        }
      ],
      "payable": false,
      "stateMutability": "view",
      "type": "function"
    }
  ],
  "bytecode": "0x60806040523480156200001157600080fd5b5060405162001e3538038062001e35833981018060405260408110156200003757600080fd5b8101908080516401000000008111156200005057600080fd5b828101905060208101848111156200006757600080fd5b81518560208202830111640100000000821117156200008557600080fd5b505092919060200180519060200190929190505050600082511162000112576040517f08c379a000000000000000000000000000000000000000000000000000000000815260040180806020018281038252600f8152602001807f6f776e657273207265717569726564000000000000000000000000000000000081525060200191505060405180910390fd5b600081118015620001235750815181105b62000196576040517f08c379a000000000000000000000000000000000000000000000000000000000815260040180806020018281038252601c8152602001807f696e76616c696420636f6e6669726d6174696f6e73206e756d6265720000000081525060200191505060405180910390fd5b60008090505b82518110156200041f57600073ffffffffffffffffffffffffffffffffffffffff16838281518110620001cb57fe5b602002602001015173ffffffffffffffffffffffffffffffffffffffff1614156200025e576040517f08c379a000000000000000000000000000000000000000000000000000000000815260040180806020018281038252600d8152602001807f696e76616c6964206f776e65720000000000000000000000000000000000000081525060200191505060405180910390fd5b60001515600360008584815181106200027357fe5b602002602001015173ffffffffffffffffffffffffffffffffffffffff1673ffffffffffffffffffffffffffffffffffffffff16815260200190815260200160002060009054906101000a900460ff1615151462000339576040517f08c379a00000000000000000000000000000000000000000000000000000000081526004018080602001828103825260148152602001807f6f776e657220616c72656164792065786973747300000000000000000000000081525060200191505060405180910390fd5b60008382815181106200034857fe5b602002602001015190506001600360008373ffffffffffffffffffffffffffffffffffffffff1673ffffffffffffffffffffffffffffffffffffffff16815260200190815260200160002060006101000a81548160ff02191690831515021790555060008190806001815401808255809150509060018203906000526020600020016000909192909190916101000a81548173ffffffffffffffffffffffffffffffffffffffff021916908373ffffffffffffffffffffffffffffffffffffffff160217905550505080806001019150506200019c565b508060018190555050506119fc80620004396000396000f3fe6080604052600436106100c25760003560e01c8063b77bf6001161007f578063d0e30db011610059578063d0e30db0146104dc578063e2ae93fb146104fa578063e8b2c2431461055f578063ee22610b1461058a576100c2565b8063b77bf60014610384578063c01a8c84146103af578063c6427474146103ea576100c2565b8063025e7c27146100c757806320ea8d86146101425780632f54bf6e1461017d57806380f59a65146101e65780639ace38c214610259578063b69ef8a814610359575b600080fd5b3480156100d357600080fd5b50610100600480360360208110156100ea57600080fd5b81019080803590602001909291905050506105c5565b604051808273ffffffffffffffffffffffffffffffffffffffff1673ffffffffffffffffffffffffffffffffffffffff16815260200191505060405180910390f35b34801561014e57600080fd5b5061017b6004803603602081101561016557600080fd5b8101908080359060200190929190505050610601565b005b34801561018957600080fd5b506101cc600480360360208110156101a057600080fd5b81019080803573ffffffffffffffffffffffffffffffffffffffff1690602001909291905050506109a8565b604051808215151515815260200191505060405180910390f35b3480156101f257600080fd5b5061023f6004803603604081101561020957600080fd5b8101908080359060200190929190803573ffffffffffffffffffffffffffffffffffffffff1690602001909291905050506109c8565b604051808215151515815260200191505060405180910390f35b34801561026557600080fd5b506102926004803603602081101561027c57600080fd5b81019080803590602001909291905050506109f7565b604051808673ffffffffffffffffffffffffffffffffffffffff1673ffffffffffffffffffffffffffffffffffffffff1681526020018581526020018060200184151515158152602001838152602001828103825285818151815260200191508051906020019080838360005b8381101561031a5780820151818401526020810190506102ff565b50505050905090810190601f1680156103475780820380516001836020036101000a031916815260200191505b50965050505050505060405180910390f35b34801561036557600080fd5b5061036e610aff565b6040518082815260200191505060405180910390f35b34801561039057600080fd5b50610399610be4565b6040518082815260200191505060405180910390f35b3480156103bb57600080fd5b506103e8600480360360208110156103d257600080fd5b8101908080359060200190929190505050610cb7565b005b3480156103f657600080fd5b506104da6004803603606081101561040d57600080fd5b81019080803573ffffffffffffffffffffffffffffffffffffffff169060200190929190803590602001909291908035906020019064010000000081111561045457600080fd5b82018360208201111561046657600080fd5b8035906020019184600183028401116401000000008311171561048857600080fd5b91908080601f016020809104026020016040519081016040528093929190818152602001838380828437600081840152601f19601f82011690508083019250505050505050919291929050505061107b565b005b6104e461132f565b6040518082815260200191505060405180910390f35b34801561050657600080fd5b506105496004803603602081101561051d57600080fd5b81019080803573ffffffffffffffffffffffffffffffffffffffff16906020019092919050505061149a565b6040518082815260200191505060405180910390f35b34801561056b57600080fd5b506105746114b2565b6040518082815260200191505060405180910390f35b34801561059657600080fd5b506105c3600480360360208110156105ad57600080fd5b81019080803590602001909291905050506114b8565b005b600081815481106105d257fe5b906000526020600020016000915054906101000a900473ffffffffffffffffffffffffffffffffffffffff1681565b60011515600360003373ffffffffffffffffffffffffffffffffffffffff1673ffffffffffffffffffffffffffffffffffffffff16815260200190815260200160002060009054906101000a900460ff161515146106c7576040517f08c379a00000000000000000000000000000000000000000000000000000000081526004018080602001828103825260148152602001807f796f7520617265206e6f7420616e206f776e657200000000000000000000000081525060200191505060405180910390fd5b806002805490508110610742576040517f08c379a00000000000000000000000000000000000000000000000000000000081526004018080602001828103825260188152602001807f7472616e73616374696f6e20646f65736e74206578697374000000000000000081525060200191505060405180910390fd5b81600015156002828154811061075457fe5b906000526020600020906005020160030160009054906101000a900460ff161515146107e8576040517f08c379a000000000000000000000000000000000000000000000000000000000815260040180806020018281038252601c8152602001807f7472616e73616374696f6e20616c72656164792065786563757465640000000081525060200191505060405180910390fd5b600115156004600085815260200190815260200160002060003373ffffffffffffffffffffffffffffffffffffffff1673ffffffffffffffffffffffffffffffffffffffff16815260200190815260200160002060009054906101000a900460ff161515146108a2576040517f08c379a00000000000000000000000000000000000000000000000000000000081526004018080602001828103825260258152602001806119ac6025913960400191505060405180910390fd5b60006004600085815260200190815260200160002060003373ffffffffffffffffffffffffffffffffffffffff1673ffffffffffffffffffffffffffffffffffffffff16815260200190815260200160002060006101000a81548160ff02191690831515021790555060016002848154811061091a57fe5b9060005260206000209060050201600401600082825403925050819055507fdd7f1999a4389ea99f79c84df2162a8e32e72dd35838b19e4094bf0357c1b62e8333604051808381526020018273ffffffffffffffffffffffffffffffffffffffff1673ffffffffffffffffffffffffffffffffffffffff1681526020019250505060405180910390a1505050565b60036020528060005260406000206000915054906101000a900460ff1681565b60046020528160005260406000206020528060005260406000206000915091509054906101000a900460ff1681565b60028181548110610a0457fe5b90600052602060002090600502016000915090508060000160009054906101000a900473ffffffffffffffffffffffffffffffffffffffff1690806001015490806002018054600181600116156101000203166002900480601f016020809104026020016040519081016040528092919081815260200182805460018160011615610100020316600290048015610adc5780601f10610ab157610100808354040283529160200191610adc565b820191906000526020600020905b815481529060010190602001808311610abf57829003601f168201915b5050505050908060030160009054906101000a900460ff16908060040154905085565b600060011515600360003373ffffffffffffffffffffffffffffffffffffffff1673ffffffffffffffffffffffffffffffffffffffff16815260200190815260200160002060009054906101000a900460ff16151514610bc7576040517f08c379a00000000000000000000000000000000000000000000000000000000081526004018080602001828103825260148152602001807f796f7520617265206e6f7420616e206f776e657200000000000000000000000081525060200191505060405180910390fd5b3073ffffffffffffffffffffffffffffffffffffffff1631905090565b600060011515600360003373ffffffffffffffffffffffffffffffffffffffff1673ffffffffffffffffffffffffffffffffffffffff16815260200190815260200160002060009054906101000a900460ff16151514610cac576040517f08c379a00000000000000000000000000000000000000000000000000000000081526004018080602001828103825260148152602001807f796f7520617265206e6f7420616e206f776e657200000000000000000000000081525060200191505060405180910390fd5b600280549050905090565b60011515600360003373ffffffffffffffffffffffffffffffffffffffff1673ffffffffffffffffffffffffffffffffffffffff16815260200190815260200160002060009054906101000a900460ff16151514610d7d576040517f08c379a00000000000000000000000000000000000000000000000000000000081526004018080602001828103825260148152602001807f796f7520617265206e6f7420616e206f776e657200000000000000000000000081525060200191505060405180910390fd5b806002805490508110610df8576040517f08c379a00000000000000000000000000000000000000000000000000000000081526004018080602001828103825260188152602001807f7472616e73616374696f6e20646f65736e74206578697374000000000000000081525060200191505060405180910390fd5b816000151560028281548110610e0a57fe5b906000526020600020906005020160030160009054906101000a900460ff16151514610e9e576040517f08c379a000000000000000000000000000000000000000000000000000000000815260040180806020018281038252601c8152602001807f7472616e73616374696f6e20616c72656164792065786563757465640000000081525060200191505060405180910390fd5b600015156004600085815260200190815260200160002060003373ffffffffffffffffffffffffffffffffffffffff1673ffffffffffffffffffffffffffffffffffffffff16815260200190815260200160002060009054906101000a900460ff16151514610f75576040517f08c379a000000000000000000000000000000000000000000000000000000000815260040180806020018281038252601d8152602001807f7472616e73616374696f6e20616c726561647920636f6e6669726d656400000081525060200191505060405180910390fd5b60016004600085815260200190815260200160002060003373ffffffffffffffffffffffffffffffffffffffff1673ffffffffffffffffffffffffffffffffffffffff16815260200190815260200160002060006101000a81548160ff021916908315150217905550600160028481548110610fed57fe5b9060005260206000209060050201600401600082825401925050819055507f15c2f311c9e0f53b50388279894aeff029a3457884a6601e924fca879e12adcc8333604051808381526020018273ffffffffffffffffffffffffffffffffffffffff1673ffffffffffffffffffffffffffffffffffffffff1681526020019250505060405180910390a1505050565b60011515600360003373ffffffffffffffffffffffffffffffffffffffff1673ffffffffffffffffffffffffffffffffffffffff16815260200190815260200160002060009054906101000a900460ff16151514611141576040517f08c379a00000000000000000000000000000000000000000000000000000000081526004018080602001828103825260148152602001807f796f7520617265206e6f7420616e206f776e657200000000000000000000000081525060200191505060405180910390fd5b600060028054905090506111536118bf565b84816000019073ffffffffffffffffffffffffffffffffffffffff16908173ffffffffffffffffffffffffffffffffffffffff16815250508381602001818152505082816040018190525060008160600190151590811515815250506002819080600181540180825580915050906001820390600052602060002090600502016000909192909190915060008201518160000160006101000a81548173ffffffffffffffffffffffffffffffffffffffff021916908373ffffffffffffffffffffffffffffffffffffffff16021790555060208201518160010155604082015181600201908051906020019061124a929190611906565b5060608201518160030160006101000a81548160ff0219169083151502179055506080820151816004015550505061128182610cb7565b7f753dcda37efe0bc3675e04e24d1fb08b70681f14675eed4b6e7978495caf2ca082338787604051808581526020018473ffffffffffffffffffffffffffffffffffffffff1673ffffffffffffffffffffffffffffffffffffffff1681526020018373ffffffffffffffffffffffffffffffffffffffff1673ffffffffffffffffffffffffffffffffffffffff16815260200182815260200194505050505060405180910390a15050505050565b60008034116113a6576040517f08c379a00000000000000000000000000000000000000000000000000000000081526004018080602001828103825260198152602001807f796f75206d7573742073656e64206d6f7265207468616e20300000000000000081525060200191505060405180910390fd5b34600560003373ffffffffffffffffffffffffffffffffffffffff1673ffffffffffffffffffffffffffffffffffffffff168152602001908152602001600020600082825401925050819055507f90890809c654f11d6e72a28fa60149770a0d11ec6c92319d6ceb2bb0a4ea1a1533343073ffffffffffffffffffffffffffffffffffffffff1631604051808473ffffffffffffffffffffffffffffffffffffffff1673ffffffffffffffffffffffffffffffffffffffff168152602001838152602001828152602001935050505060405180910390a13073ffffffffffffffffffffffffffffffffffffffff1631905090565b60056020528060005260406000206000915090505481565b60015481565b60011515600360003373ffffffffffffffffffffffffffffffffffffffff1673ffffffffffffffffffffffffffffffffffffffff16815260200190815260200160002060009054906101000a900460ff1615151461157e576040517f08c379a00000000000000000000000000000000000000000000000000000000081526004018080602001828103825260148152602001807f796f7520617265206e6f7420616e206f776e657200000000000000000000000081525060200191505060405180910390fd5b8060028054905081106115f9576040517f08c379a00000000000000000000000000000000000000000000000000000000081526004018080602001828103825260188152602001807f7472616e73616374696f6e20646f65736e74206578697374000000000000000081525060200191505060405180910390fd5b81600015156002828154811061160b57fe5b906000526020600020906005020160030160009054906101000a900460ff1615151461169f576040517f08c379a000000000000000000000000000000000000000000000000000000000815260040180806020018281038252601c8152602001807f7472616e73616374696f6e20616c72656164792065786563757465640000000081525060200191505060405180910390fd5b600154600284815481106116af57fe5b9060005260206000209060050201600401541015611735576040517f08c379a00000000000000000000000000000000000000000000000000000000081526004018080602001828103825260188152602001807f6e6f7420656e6f75676820636f6e6669726d6174696f6e73000000000000000081525060200191505060405180910390fd5b60006002848154811061174457fe5b906000526020600020906005020160000160009054906101000a900473ffffffffffffffffffffffffffffffffffffffff16905060006002858154811061178757fe5b90600052602060002090600502016001015490506001600286815481106117aa57fe5b906000526020600020906005020160030160006101000a81548160ff0219169083151502179055508173ffffffffffffffffffffffffffffffffffffffff166108fc829081150290604051600060405180830381858888f19350505050158015611818573d6000803e3d6000fd5b507f9bb4afe45e53d785b26e5e7d61cf2e8c4dcdb2c4d3489dea97d8514cbfcb23cd828233604051808473ffffffffffffffffffffffffffffffffffffffff1673ffffffffffffffffffffffffffffffffffffffff1681526020018381526020018273ffffffffffffffffffffffffffffffffffffffff1673ffffffffffffffffffffffffffffffffffffffff168152602001935050505060405180910390a15050505050565b6040518060a00160405280600073ffffffffffffffffffffffffffffffffffffffff1681526020016000815260200160608152602001600015158152602001600081525090565b828054600181600116156101000203166002900490600052602060002090601f016020900481019282601f1061194757805160ff1916838001178555611975565b82800160010185558215611975579182015b82811115611974578251825591602001919060010190611959565b5b5090506119829190611986565b5090565b6119a891905b808211156119a457600081600090555060010161198c565b5090565b9056fe796f7520686176656e7420636f6e6669726d65642074686973207472616e73616374696f6ea165627a7a72305820092badbfc85fb11c9e0e3cbe0583d1cfb189b72f6ea87859169917eff9cddabe0029",
  "source": "pragma solidity 0.5.8;\r\n\r\ncontract MultiSigWallet {\r\n    address[] public owners;\r\n    uint public confirmationsRequired;\r\n\r\n    struct Transaction {\r\n        address payable to;\r\n        uint256 value;\r\n        bytes data;\r\n        bool executed;\r\n        uint256 confirmationsNr;\r\n    }\r\n\r\n    Transaction[] public transactions;\r\n\r\n    mapping(address => bool) public isOwner;\r\n    mapping(uint256 => mapping(address => bool)) public isConfirmed;\r\n    mapping(address => uint256) public funds;\r\n\r\n    modifier onlyOwner() {\r\n        require(isOwner[msg.sender] == true, 'you are not an owner');\r\n        _;\r\n    }\r\n    modifier txExists(uint _txIndex) {\r\n        require(_txIndex < transactions.length, 'transaction doesnt exist');\r\n        _;\r\n    }\r\n    modifier notExecuted(uint _txIndex) {\r\n        require(transactions[_txIndex].executed == false, 'transaction already executed');\r\n        _;\r\n    }\r\n\r\n    event TransactionSubmitted(uint256 txIndex, address creator, address to, uint256 value);\r\n    event TransactionConfirmed(uint256 txIndex, address confirmedBy);\r\n    event TransactionExecuted(address to, uint256 value, address executedBy);\r\n    event ConfirmationRevoked(uint256 txIndex, address revokedBy);\r\n    event Deposit(address from, uint256 value, uint256 balance);\r\n\r\n    \r\n    \r\n    constructor(address[] memory _owners, uint _confirmationsRequired) public {\r\n        require(_owners.length > 0, 'owners required');\r\n        require(_confirmationsRequired > 0 && _confirmationsRequired < _owners.length, 'invalid confirmations number');\r\n\r\n        for (uint i=0; i < _owners.length; i++) {\r\n            require(_owners[i] != address(0), 'invalid owner');\r\n            require(isOwner[_owners[i]] == false, 'owner already exists' );\r\n            \r\n            address owner = _owners[i];\r\n            isOwner[owner] = true;\r\n            owners.push(owner);\r\n        }\r\n\r\n        confirmationsRequired = _confirmationsRequired;\r\n    }\r\n\r\n    function submitTransaction(address payable _to, uint256 _value, bytes memory _data) public onlyOwner {\r\n        \r\n        uint256 _txIndex = transactions.length;\r\n\r\n        Transaction memory transaction;\r\n\r\n        transaction.to = _to;\r\n        transaction.value = _value;\r\n        transaction.data = _data;\r\n        transaction.executed = false;\r\n\r\n        transactions.push(transaction);\r\n        \r\n        confirmTransaction(_txIndex);\r\n\r\n       emit TransactionSubmitted(_txIndex, msg.sender, _to, _value);\r\n    }\r\n\r\n    function confirmTransaction(uint256 _txIndex) public onlyOwner() txExists(_txIndex) notExecuted(_txIndex) {\r\n        require(isConfirmed[_txIndex][msg.sender] == false, 'transaction already confirmed');\r\n\r\n        isConfirmed[_txIndex][msg.sender] = true;\r\n        transactions[_txIndex].confirmationsNr += 1;\r\n\r\n        emit TransactionConfirmed(_txIndex, msg.sender);\r\n    }\r\n\r\n    function executeTransaction(uint256 _txIndex) public onlyOwner() txExists(_txIndex) notExecuted(_txIndex) {\r\n        require(transactions[_txIndex].confirmationsNr >= confirmationsRequired, 'not enough confirmations');\r\n\r\n        address payable receiver = transactions[_txIndex].to;\r\n        uint256 value = transactions[_txIndex].value;\r\n\r\n        transactions[_txIndex].executed = true;\r\n        receiver.transfer(value);\r\n\r\n        emit TransactionExecuted(receiver, value, msg.sender);\r\n    }\r\n\r\n    function revokeConfirmation(uint256 _txIndex) public onlyOwner() txExists(_txIndex) notExecuted(_txIndex) {\r\n        require(isConfirmed[_txIndex][msg.sender] == true, 'you havent confirmed this transaction');\r\n\r\n        isConfirmed[_txIndex][msg.sender] = false;\r\n        transactions[_txIndex].confirmationsNr -= 1;\r\n\r\n        emit ConfirmationRevoked(_txIndex, msg.sender);\r\n    }\r\n    \r\n    function transactionCount() public view onlyOwner() returns(uint256) {\r\n        return transactions.length;\r\n    }\r\n\r\n    //this function is available for version 0.7.5 (returning an array of structs)\r\n    /*function getTransactions() public onlyOwner() returns(Transaction[] memory){\r\n        return transactions;\r\n    }*/\r\n    \r\n    function deposit() payable external returns(uint256) {\r\n        require(msg.value > 0, 'you must send more than 0');\r\n        funds[msg.sender] += msg.value;\r\n        emit Deposit(msg.sender, msg.value, address(this).balance);\r\n        return address(this).balance;\r\n    }\r\n    \r\n    function balance() public view onlyOwner() returns(uint256) {\r\n        return address(this).balance;\r\n    }\r\n}\r\n",
  "sourcePath": "C:/Users/Admin/Documents/Ethereum course 201/wallet/multi-sig-wallet/contracts/MultiSigWallet.sol",
  "compiler": {
    "name": "solc",
    "version": "0.5.8+commit.23d335f2.Emscripten.clang"
  },
  "schemaVersion": "3.0.16",
  "updatedAt": "2020-12-21T19:48:11.091Z",
  "devdoc": {
    "methods": {}
  },
  "userdoc": {
    "methods": {}
  }
}