{
  "contractName": "MultiSigWallet",
  "abi": [
    {
      "constant": true,
      "inputs": [
        {
          "name": "",
          "type": "uint256"
        }
      ],
      "name": "owners",
      "outputs": [
        {
          "name": "",
          "type": "address"
        }
      ],
      "payable": false,
      "stateMutability": "view",
      "type": "function"
    },
    {
      "constant": true,
      "inputs": [],
      "name": "maxOwners",
      "outputs": [
        {
          "name": "",
          "type": "uint256"
        }
      ],
      "payable": false,
      "stateMutability": "view",
      "type": "function"
    },
    {
      "constant": true,
      "inputs": [
        {
          "name": "",
          "type": "address"
        }
      ],
      "name": "isOwner",
      "outputs": [
        {
          "name": "",
          "type": "bool"
        }
      ],
      "payable": false,
      "stateMutability": "view",
      "type": "function"
    },
    {
      "constant": true,
      "inputs": [
        {
          "name": "",
          "type": "uint256"
        },
        {
          "name": "",
          "type": "address"
        }
      ],
      "name": "isConfirmed",
      "outputs": [
        {
          "name": "",
          "type": "bool"
        }
      ],
      "payable": false,
      "stateMutability": "view",
      "type": "function"
    },
    {
      "constant": true,
      "inputs": [
        {
          "name": "",
          "type": "uint256"
        }
      ],
      "name": "transactions",
      "outputs": [
        {
          "name": "to",
          "type": "address"
        },
        {
          "name": "value",
          "type": "uint256"
        },
        {
          "name": "data",
          "type": "bytes"
        },
        {
          "name": "executed",
          "type": "bool"
        },
        {
          "name": "confirmationsNr",
          "type": "uint256"
        }
      ],
      "payable": false,
      "stateMutability": "view",
      "type": "function"
    },
    {
      "constant": true,
      "inputs": [
        {
          "name": "",
          "type": "address"
        }
      ],
      "name": "funds",
      "outputs": [
        {
          "name": "",
          "type": "uint256"
        }
      ],
      "payable": false,
      "stateMutability": "view",
      "type": "function"
    },
    {
      "constant": true,
      "inputs": [],
      "name": "confirmationsRequired",
      "outputs": [
        {
          "name": "",
          "type": "uint256"
        }
      ],
      "payable": false,
      "stateMutability": "view",
      "type": "function"
    },
    {
      "inputs": [
        {
          "name": "_owners",
          "type": "address[]"
        },
        {
          "name": "_confirmationsRequired",
          "type": "uint256"
        }
      ],
      "payable": false,
      "stateMutability": "nonpayable",
      "type": "constructor"
    },
    {
      "anonymous": false,
      "inputs": [
        {
          "indexed": false,
          "name": "txIndex",
          "type": "uint256"
        },
        {
          "indexed": true,
          "name": "creator",
          "type": "address"
        },
        {
          "indexed": false,
          "name": "to",
          "type": "address"
        },
        {
          "indexed": false,
          "name": "value",
          "type": "uint256"
        }
      ],
      "name": "TransactionSubmitted",
      "type": "event"
    },
    {
      "anonymous": false,
      "inputs": [
        {
          "indexed": false,
          "name": "txIndex",
          "type": "uint256"
        },
        {
          "indexed": false,
          "name": "confirmedBy",
          "type": "address"
        }
      ],
      "name": "TransactionConfirmed",
      "type": "event"
    },
    {
      "anonymous": false,
      "inputs": [
        {
          "indexed": true,
          "name": "to",
          "type": "address"
        },
        {
          "indexed": false,
          "name": "value",
          "type": "uint256"
        },
        {
          "indexed": false,
          "name": "executedBy",
          "type": "address"
        }
      ],
      "name": "TransactionExecuted",
      "type": "event"
    },
    {
      "anonymous": false,
      "inputs": [
        {
          "indexed": false,
          "name": "txIndex",
          "type": "uint256"
        },
        {
          "indexed": false,
          "name": "revokedBy",
          "type": "address"
        }
      ],
      "name": "ConfirmationRevoked",
      "type": "event"
    },
    {
      "anonymous": false,
      "inputs": [
        {
          "indexed": true,
          "name": "from",
          "type": "address"
        },
        {
          "indexed": false,
          "name": "value",
          "type": "uint256"
        },
        {
          "indexed": false,
          "name": "balance",
          "type": "uint256"
        }
      ],
      "name": "Deposit",
      "type": "event"
    },
    {
      "constant": false,
      "inputs": [
        {
          "name": "_newOwner",
          "type": "address"
        }
      ],
      "name": "addOwner",
      "outputs": [],
      "payable": false,
      "stateMutability": "nonpayable",
      "type": "function"
    },
    {
      "constant": false,
      "inputs": [
        {
          "name": "_to",
          "type": "address"
        },
        {
          "name": "_value",
          "type": "uint256"
        },
        {
          "name": "_data",
          "type": "bytes"
        }
      ],
      "name": "submitTransaction",
      "outputs": [],
      "payable": false,
      "stateMutability": "nonpayable",
      "type": "function"
    },
    {
      "constant": false,
      "inputs": [
        {
          "name": "_txIndex",
          "type": "uint256"
        }
      ],
      "name": "confirmTransaction",
      "outputs": [],
      "payable": false,
      "stateMutability": "nonpayable",
      "type": "function"
    },
    {
      "constant": false,
      "inputs": [
        {
          "name": "_txIndex",
          "type": "uint256"
        }
      ],
      "name": "executeTransaction",
      "outputs": [],
      "payable": true,
      "stateMutability": "payable",
      "type": "function"
    },
    {
      "constant": false,
      "inputs": [
        {
          "name": "_txIndex",
          "type": "uint256"
        }
      ],
      "name": "revokeConfirmation",
      "outputs": [],
      "payable": false,
      "stateMutability": "nonpayable",
      "type": "function"
    },
    {
      "constant": true,
      "inputs": [],
      "name": "transactionCount",
      "outputs": [
        {
          "name": "",
          "type": "uint256"
        }
      ],
      "payable": false,
      "stateMutability": "view",
      "type": "function"
    },
    {
      "constant": false,
      "inputs": [],
      "name": "deposit",
      "outputs": [
        {
          "name": "",
          "type": "uint256"
        }
      ],
      "payable": true,
      "stateMutability": "payable",
      "type": "function"
    },
    {
      "constant": true,
      "inputs": [],
      "name": "balance",
      "outputs": [
        {
          "name": "",
          "type": "uint256"
        }
      ],
      "payable": false,
      "stateMutability": "view",
      "type": "function"
    }
  ],
  "bytecode": "0x6080604052600a6002553480156200001657600080fd5b50604051620023e4380380620023e4833981018060405260408110156200003c57600080fd5b8101908080516401000000008111156200005557600080fd5b828101905060208101848111156200006c57600080fd5b81518560208202830111640100000000821117156200008a57600080fd5b5050929190602001805190602001909291905050508151816000821162000119576040517f08c379a000000000000000000000000000000000000000000000000000000000815260040180806020018281038252600f8152602001807f6f776e657273207265717569726564000000000000000000000000000000000081525060200191505060405180910390fd5b60025482111562000192576040517f08c379a000000000000000000000000000000000000000000000000000000000815260040180806020018281038252600f8152602001807f746f6f206d616e79206f776e657273000000000000000000000000000000000081525060200191505060405180910390fd5b600081118015620001a257508181105b62000215576040517f08c379a000000000000000000000000000000000000000000000000000000000815260040180806020018281038252601c8152602001807f696e76616c696420636f6e6669726d6174696f6e73206e756d6265720000000081525060200191505060405180910390fd5b60008090505b84518110156200049e57600073ffffffffffffffffffffffffffffffffffffffff168582815181106200024a57fe5b602002602001015173ffffffffffffffffffffffffffffffffffffffff161415620002dd576040517f08c379a000000000000000000000000000000000000000000000000000000000815260040180806020018281038252600d8152602001807f696e76616c6964206f776e65720000000000000000000000000000000000000081525060200191505060405180910390fd5b6000151560046000878481518110620002f257fe5b602002602001015173ffffffffffffffffffffffffffffffffffffffff1673ffffffffffffffffffffffffffffffffffffffff16815260200190815260200160002060009054906101000a900460ff16151514620003b8576040517f08c379a00000000000000000000000000000000000000000000000000000000081526004018080602001828103825260148152602001807f6f776e657220616c72656164792065786973747300000000000000000000000081525060200191505060405180910390fd5b6000858281518110620003c757fe5b602002602001015190506001600460008373ffffffffffffffffffffffffffffffffffffffff1673ffffffffffffffffffffffffffffffffffffffff16815260200190815260200160002060006101000a81548160ff02191690831515021790555060008190806001815401808255809150509060018203906000526020600020016000909192909190916101000a81548173ffffffffffffffffffffffffffffffffffffffff021916908373ffffffffffffffffffffffffffffffffffffffff160217905550505080806001019150506200021b565b508260018190555050505050611f2a80620004ba6000396000f3fe6080604052600436106100e85760003560e01c8063b69ef8a81161008a578063d0e30db011610059578063d0e30db01461057e578063e2ae93fb1461059c578063e8b2c24314610601578063ee22610b1461062c576100e8565b8063b69ef8a8146103fb578063b77bf60014610426578063c01a8c8414610451578063c64274741461048c576100e8565b80632f54bf6e116100c65780632f54bf6e146101ce5780637065cb481461023757806380f59a65146102885780639ace38c2146102fb576100e8565b8063025e7c27146100ed578063045b76ca1461016857806320ea8d8614610193575b600080fd5b3480156100f957600080fd5b506101266004803603602081101561011057600080fd5b810190808035906020019092919050505061065a565b604051808273ffffffffffffffffffffffffffffffffffffffff1673ffffffffffffffffffffffffffffffffffffffff16815260200191505060405180910390f35b34801561017457600080fd5b5061017d610696565b6040518082815260200191505060405180910390f35b34801561019f57600080fd5b506101cc600480360360208110156101b657600080fd5b810190808035906020019092919050505061069c565b005b3480156101da57600080fd5b5061021d600480360360208110156101f157600080fd5b81019080803573ffffffffffffffffffffffffffffffffffffffff169060200190929190505050610a43565b604051808215151515815260200191505060405180910390f35b34801561024357600080fd5b506102866004803603602081101561025a57600080fd5b81019080803573ffffffffffffffffffffffffffffffffffffffff169060200190929190505050610a63565b005b34801561029457600080fd5b506102e1600480360360408110156102ab57600080fd5b8101908080359060200190929190803573ffffffffffffffffffffffffffffffffffffffff169060200190929190505050610e42565b604051808215151515815260200191505060405180910390f35b34801561030757600080fd5b506103346004803603602081101561031e57600080fd5b8101908080359060200190929190505050610e71565b604051808673ffffffffffffffffffffffffffffffffffffffff1673ffffffffffffffffffffffffffffffffffffffff1681526020018581526020018060200184151515158152602001838152602001828103825285818151815260200191508051906020019080838360005b838110156103bc5780820151818401526020810190506103a1565b50505050905090810190601f1680156103e95780820380516001836020036101000a031916815260200191505b50965050505050505060405180910390f35b34801561040757600080fd5b50610410610f79565b6040518082815260200191505060405180910390f35b34801561043257600080fd5b5061043b61105e565b6040518082815260200191505060405180910390f35b34801561045d57600080fd5b5061048a6004803603602081101561047457600080fd5b8101908080359060200190929190505050611131565b005b34801561049857600080fd5b5061057c600480360360608110156104af57600080fd5b81019080803573ffffffffffffffffffffffffffffffffffffffff16906020019092919080359060200190929190803590602001906401000000008111156104f657600080fd5b82018360208201111561050857600080fd5b8035906020019184600183028401116401000000008311171561052a57600080fd5b91908080601f016020809104026020016040519081016040528093929190818152602001838380828437600081840152601f19601f8201169050808301925050505050505091929192905050506114f5565b005b61058661178c565b6040518082815260200191505060405180910390f35b3480156105a857600080fd5b506105eb600480360360208110156105bf57600080fd5b81019080803573ffffffffffffffffffffffffffffffffffffffff1690602001909291905050506118da565b6040518082815260200191505060405180910390f35b34801561060d57600080fd5b506106166118f2565b6040518082815260200191505060405180910390f35b6106586004803603602081101561064257600080fd5b81019080803590602001909291905050506118f8565b005b6000818154811061066757fe5b906000526020600020016000915054906101000a900473ffffffffffffffffffffffffffffffffffffffff1681565b60025481565b60011515600460003373ffffffffffffffffffffffffffffffffffffffff1673ffffffffffffffffffffffffffffffffffffffff16815260200190815260200160002060009054906101000a900460ff16151514610762576040517f08c379a00000000000000000000000000000000000000000000000000000000081526004018080602001828103825260148152602001807f796f7520617265206e6f7420616e206f776e657200000000000000000000000081525060200191505060405180910390fd5b8060038054905081106107dd576040517f08c379a00000000000000000000000000000000000000000000000000000000081526004018080602001828103825260188152602001807f7472616e73616374696f6e20646f65736e74206578697374000000000000000081525060200191505060405180910390fd5b8160001515600382815481106107ef57fe5b906000526020600020906005020160030160009054906101000a900460ff16151514610883576040517f08c379a000000000000000000000000000000000000000000000000000000000815260040180806020018281038252601c8152602001807f7472616e73616374696f6e20616c72656164792065786563757465640000000081525060200191505060405180910390fd5b600115156005600085815260200190815260200160002060003373ffffffffffffffffffffffffffffffffffffffff1673ffffffffffffffffffffffffffffffffffffffff16815260200190815260200160002060009054906101000a900460ff1615151461093d576040517f08c379a0000000000000000000000000000000000000000000000000000000008152600401808060200182810382526025815260200180611eda6025913960400191505060405180910390fd5b60006005600085815260200190815260200160002060003373ffffffffffffffffffffffffffffffffffffffff1673ffffffffffffffffffffffffffffffffffffffff16815260200190815260200160002060006101000a81548160ff0219169083151502179055506001600384815481106109b557fe5b9060005260206000209060050201600401600082825403925050819055507fdd7f1999a4389ea99f79c84df2162a8e32e72dd35838b19e4094bf0357c1b62e8333604051808381526020018273ffffffffffffffffffffffffffffffffffffffff1673ffffffffffffffffffffffffffffffffffffffff1681526020019250505060405180910390a1505050565b60046020528060005260406000206000915054906101000a900460ff1681565b3073ffffffffffffffffffffffffffffffffffffffff163373ffffffffffffffffffffffffffffffffffffffff1614610a9b57600080fd5b60016000805490500160015460008211610b1d576040517f08c379a000000000000000000000000000000000000000000000000000000000815260040180806020018281038252600f8152602001807f6f776e657273207265717569726564000000000000000000000000000000000081525060200191505060405180910390fd5b600254821115610b95576040517f08c379a000000000000000000000000000000000000000000000000000000000815260040180806020018281038252600f8152602001807f746f6f206d616e79206f776e657273000000000000000000000000000000000081525060200191505060405180910390fd5b600081118015610ba457508181105b610c16576040517f08c379a000000000000000000000000000000000000000000000000000000000815260040180806020018281038252601c8152602001807f696e76616c696420636f6e6669726d6174696f6e73206e756d6265720000000081525060200191505060405180910390fd5b600073ffffffffffffffffffffffffffffffffffffffff168373ffffffffffffffffffffffffffffffffffffffff161415610cb9576040517f08c379a000000000000000000000000000000000000000000000000000000000815260040180806020018281038252600d8152602001807f696e76616c6964206f776e65720000000000000000000000000000000000000081525060200191505060405180910390fd5b60001515600460008573ffffffffffffffffffffffffffffffffffffffff1673ffffffffffffffffffffffffffffffffffffffff16815260200190815260200160002060009054906101000a900460ff16151514610d7f576040517f08c379a00000000000000000000000000000000000000000000000000000000081526004018080602001828103825260148152602001807f6f776e657220616c72656164792065786973747300000000000000000000000081525060200191505060405180910390fd5b6001600460008573ffffffffffffffffffffffffffffffffffffffff1673ffffffffffffffffffffffffffffffffffffffff16815260200190815260200160002060006101000a81548160ff02191690831515021790555060008390806001815401808255809150509060018203906000526020600020016000909192909190916101000a81548173ffffffffffffffffffffffffffffffffffffffff021916908373ffffffffffffffffffffffffffffffffffffffff16021790555050505050565b60056020528160005260406000206020528060005260406000206000915091509054906101000a900460ff1681565b60038181548110610e7e57fe5b90600052602060002090600502016000915090508060000160009054906101000a900473ffffffffffffffffffffffffffffffffffffffff1690806001015490806002018054600181600116156101000203166002900480601f016020809104026020016040519081016040528092919081815260200182805460018160011615610100020316600290048015610f565780601f10610f2b57610100808354040283529160200191610f56565b820191906000526020600020905b815481529060010190602001808311610f3957829003601f168201915b5050505050908060030160009054906101000a900460ff16908060040154905085565b600060011515600460003373ffffffffffffffffffffffffffffffffffffffff1673ffffffffffffffffffffffffffffffffffffffff16815260200190815260200160002060009054906101000a900460ff16151514611041576040517f08c379a00000000000000000000000000000000000000000000000000000000081526004018080602001828103825260148152602001807f796f7520617265206e6f7420616e206f776e657200000000000000000000000081525060200191505060405180910390fd5b3073ffffffffffffffffffffffffffffffffffffffff1631905090565b600060011515600460003373ffffffffffffffffffffffffffffffffffffffff1673ffffffffffffffffffffffffffffffffffffffff16815260200190815260200160002060009054906101000a900460ff16151514611126576040517f08c379a00000000000000000000000000000000000000000000000000000000081526004018080602001828103825260148152602001807f796f7520617265206e6f7420616e206f776e657200000000000000000000000081525060200191505060405180910390fd5b600380549050905090565b60011515600460003373ffffffffffffffffffffffffffffffffffffffff1673ffffffffffffffffffffffffffffffffffffffff16815260200190815260200160002060009054906101000a900460ff161515146111f7576040517f08c379a00000000000000000000000000000000000000000000000000000000081526004018080602001828103825260148152602001807f796f7520617265206e6f7420616e206f776e657200000000000000000000000081525060200191505060405180910390fd5b806003805490508110611272576040517f08c379a00000000000000000000000000000000000000000000000000000000081526004018080602001828103825260188152602001807f7472616e73616374696f6e20646f65736e74206578697374000000000000000081525060200191505060405180910390fd5b81600015156003828154811061128457fe5b906000526020600020906005020160030160009054906101000a900460ff16151514611318576040517f08c379a000000000000000000000000000000000000000000000000000000000815260040180806020018281038252601c8152602001807f7472616e73616374696f6e20616c72656164792065786563757465640000000081525060200191505060405180910390fd5b600015156005600085815260200190815260200160002060003373ffffffffffffffffffffffffffffffffffffffff1673ffffffffffffffffffffffffffffffffffffffff16815260200190815260200160002060009054906101000a900460ff161515146113ef576040517f08c379a000000000000000000000000000000000000000000000000000000000815260040180806020018281038252601d8152602001807f7472616e73616374696f6e20616c726561647920636f6e6669726d656400000081525060200191505060405180910390fd5b60016005600085815260200190815260200160002060003373ffffffffffffffffffffffffffffffffffffffff1673ffffffffffffffffffffffffffffffffffffffff16815260200190815260200160002060006101000a81548160ff02191690831515021790555060016003848154811061146757fe5b9060005260206000209060050201600401600082825401925050819055507f15c2f311c9e0f53b50388279894aeff029a3457884a6601e924fca879e12adcc8333604051808381526020018273ffffffffffffffffffffffffffffffffffffffff1673ffffffffffffffffffffffffffffffffffffffff1681526020019250505060405180910390a1505050565b60011515600460003373ffffffffffffffffffffffffffffffffffffffff1673ffffffffffffffffffffffffffffffffffffffff16815260200190815260200160002060009054906101000a900460ff161515146115bb576040517f08c379a00000000000000000000000000000000000000000000000000000000081526004018080602001828103825260148152602001807f796f7520617265206e6f7420616e206f776e657200000000000000000000000081525060200191505060405180910390fd5b600060038054905090506115cd611ded565b84816000019073ffffffffffffffffffffffffffffffffffffffff16908173ffffffffffffffffffffffffffffffffffffffff16815250508381602001818152505082816040018190525060008160600190151590811515815250506003819080600181540180825580915050906001820390600052602060002090600502016000909192909190915060008201518160000160006101000a81548173ffffffffffffffffffffffffffffffffffffffff021916908373ffffffffffffffffffffffffffffffffffffffff1602179055506020820151816001015560408201518160020190805190602001906116c4929190611e34565b5060608201518160030160006101000a81548160ff021916908315150217905550608082015181600401555050506116fb82611131565b3373ffffffffffffffffffffffffffffffffffffffff167f753dcda37efe0bc3675e04e24d1fb08b70681f14675eed4b6e7978495caf2ca0838787604051808481526020018373ffffffffffffffffffffffffffffffffffffffff1673ffffffffffffffffffffffffffffffffffffffff168152602001828152602001935050505060405180910390a25050505050565b6000803411611803576040517f08c379a00000000000000000000000000000000000000000000000000000000081526004018080602001828103825260198152602001807f796f75206d7573742073656e64206d6f7265207468616e20300000000000000081525060200191505060405180910390fd5b34600660003373ffffffffffffffffffffffffffffffffffffffff1673ffffffffffffffffffffffffffffffffffffffff168152602001908152602001600020600082825401925050819055503373ffffffffffffffffffffffffffffffffffffffff167f90890809c654f11d6e72a28fa60149770a0d11ec6c92319d6ceb2bb0a4ea1a15343073ffffffffffffffffffffffffffffffffffffffff1631604051808381526020018281526020019250505060405180910390a23073ffffffffffffffffffffffffffffffffffffffff1631905090565b60066020528060005260406000206000915090505481565b60015481565b60011515600460003373ffffffffffffffffffffffffffffffffffffffff1673ffffffffffffffffffffffffffffffffffffffff16815260200190815260200160002060009054906101000a900460ff161515146119be576040517f08c379a00000000000000000000000000000000000000000000000000000000081526004018080602001828103825260148152602001807f796f7520617265206e6f7420616e206f776e657200000000000000000000000081525060200191505060405180910390fd5b806003805490508110611a39576040517f08c379a00000000000000000000000000000000000000000000000000000000081526004018080602001828103825260188152602001807f7472616e73616374696f6e20646f65736e74206578697374000000000000000081525060200191505060405180910390fd5b816000151560038281548110611a4b57fe5b906000526020600020906005020160030160009054906101000a900460ff16151514611adf576040517f08c379a000000000000000000000000000000000000000000000000000000000815260040180806020018281038252601c8152602001807f7472616e73616374696f6e20616c72656164792065786563757465640000000081525060200191505060405180910390fd5b60015460038481548110611aef57fe5b9060005260206000209060050201600401541015611b75576040517f08c379a00000000000000000000000000000000000000000000000000000000081526004018080602001828103825260188152602001807f6e6f7420656e6f75676820636f6e6669726d6174696f6e73000000000000000081525060200191505060405180910390fd5b600060038481548110611b8457fe5b906000526020600020906005020160000160009054906101000a900473ffffffffffffffffffffffffffffffffffffffff169050600060038581548110611bc757fe5b9060005260206000209060050201600101549050600160038681548110611bea57fe5b906000526020600020906005020160030160006101000a81548160ff02191690831515021790555060008273ffffffffffffffffffffffffffffffffffffffff168260038881548110611c3957fe5b90600052602060002090600502016002016040518082805460018160011615610100020316600290048015611ca55780601f10611c83576101008083540402835291820191611ca5565b820191906000526020600020905b815481529060010190602001808311611c91575b505091505060006040518083038185875af1925050503d8060008114611ce7576040519150601f19603f3d011682016040523d82523d6000602084013e611cec565b606091505b5050905080611d63576040517f08c379a00000000000000000000000000000000000000000000000000000000081526004018080602001828103825260098152602001807f7478206661696c6564000000000000000000000000000000000000000000000081525060200191505060405180910390fd5b8273ffffffffffffffffffffffffffffffffffffffff167f9bb4afe45e53d785b26e5e7d61cf2e8c4dcdb2c4d3489dea97d8514cbfcb23cd8333604051808381526020018273ffffffffffffffffffffffffffffffffffffffff1673ffffffffffffffffffffffffffffffffffffffff1681526020019250505060405180910390a2505050505050565b6040518060a00160405280600073ffffffffffffffffffffffffffffffffffffffff1681526020016000815260200160608152602001600015158152602001600081525090565b828054600181600116156101000203166002900490600052602060002090601f016020900481019282601f10611e7557805160ff1916838001178555611ea3565b82800160010185558215611ea3579182015b82811115611ea2578251825591602001919060010190611e87565b5b509050611eb09190611eb4565b5090565b611ed691905b80821115611ed2576000816000905550600101611eba565b5090565b9056fe796f7520686176656e7420636f6e6669726d65642074686973207472616e73616374696f6ea165627a7a72305820bdae0e6da302124d59c65a9b5978ba155ca9a12cb91e5162c34ceb4280614b160029",
  "source": "pragma solidity 0.5.8;\r\n\r\ncontract MultiSigWallet {\r\n    address[] public owners;\r\n    uint public confirmationsRequired;\r\n    uint public maxOwners = 10;\r\n\r\n    struct Transaction {\r\n        address payable to;\r\n        uint256 value;\r\n        bytes data;\r\n        bool executed;\r\n        uint256 confirmationsNr;\r\n    }\r\n    \r\n\r\n    Transaction[] public transactions;\r\n\r\n    \r\n    mapping(address => bool) public isOwner;\r\n    mapping(uint256 => mapping(address => bool)) public isConfirmed;\r\n    mapping(address => uint256) public funds;\r\n\r\n    modifier onlyOwner() {\r\n        require(isOwner[msg.sender] == true, 'you are not an owner');\r\n        _;\r\n    }\r\n    modifier onlyWallet() {\r\n        require(msg.sender == address(this));\r\n        _;\r\n    }\r\n    modifier txExists(uint _txIndex) {\r\n        require(_txIndex < transactions.length, 'transaction doesnt exist');\r\n        _;\r\n    }\r\n    modifier notExecuted(uint _txIndex) {\r\n        require(transactions[_txIndex].executed == false, 'transaction already executed');\r\n        _;\r\n    }\r\n    modifier validRequirement(uint _ownersNumber, uint _confirmationsRequired) {\r\n        require(_ownersNumber > 0, 'owners required');\r\n        require(_ownersNumber <= maxOwners, 'too many owners');\r\n        require(_confirmationsRequired > 0 && _confirmationsRequired < _ownersNumber, 'invalid confirmations number');\r\n        _;\r\n    }\r\n\r\n    event TransactionSubmitted(uint256 txIndex, address indexed creator, address to, uint256 value);\r\n    event TransactionConfirmed(uint256 txIndex, address confirmedBy);\r\n    event TransactionExecuted(address indexed to, uint256 value, address executedBy);\r\n    event ConfirmationRevoked(uint256 txIndex, address revokedBy);\r\n    event Deposit(address indexed from, uint256 value, uint256 balance);\r\n\r\n    \r\n    \r\n    constructor(address[] memory _owners, uint _confirmationsRequired) public validRequirement(_owners.length, _confirmationsRequired) {\r\n\r\n        for (uint i=0; i < _owners.length; i++) {\r\n            require(_owners[i] != address(0), 'invalid owner');\r\n            require(isOwner[_owners[i]] == false, 'owner already exists' );\r\n            \r\n            address owner = _owners[i];\r\n            isOwner[owner] = true;\r\n            owners.push(owner);\r\n        }\r\n\r\n        confirmationsRequired = _confirmationsRequired;\r\n    }\r\n\r\n    function addOwner(address _newOwner) public onlyWallet() validRequirement(owners.length + 1, confirmationsRequired){\r\n        require(_newOwner != address(0), 'invalid owner');\r\n        require(isOwner[_newOwner] == false, 'owner already exists');\r\n        \r\n        isOwner[_newOwner] = true;\r\n        owners.push(_newOwner);\r\n    }\r\n\r\n    function submitTransaction(address payable _to, uint256 _value, bytes memory _data) public onlyOwner {\r\n        \r\n        uint256 _txIndex = transactions.length;\r\n\r\n        Transaction memory transaction;\r\n\r\n        transaction.to = _to;\r\n        transaction.value = _value;\r\n        transaction.data = _data;\r\n        transaction.executed = false;\r\n\r\n        transactions.push(transaction);\r\n        \r\n        confirmTransaction(_txIndex);\r\n\r\n       emit TransactionSubmitted(_txIndex, msg.sender, _to, _value);\r\n    }\r\n\r\n    function confirmTransaction(uint256 _txIndex) public onlyOwner() txExists(_txIndex) notExecuted(_txIndex) {\r\n        require(isConfirmed[_txIndex][msg.sender] == false, 'transaction already confirmed');\r\n\r\n        isConfirmed[_txIndex][msg.sender] = true;\r\n        transactions[_txIndex].confirmationsNr += 1;\r\n\r\n        emit TransactionConfirmed(_txIndex, msg.sender);\r\n    }\r\n\r\n    function executeTransaction(uint256 _txIndex) public payable onlyOwner() txExists(_txIndex) notExecuted(_txIndex) {\r\n        require(transactions[_txIndex].confirmationsNr >= confirmationsRequired, 'not enough confirmations');\r\n\r\n        address payable receiver = transactions[_txIndex].to;\r\n        uint256 txValue = transactions[_txIndex].value;\r\n\r\n        transactions[_txIndex].executed = true;\r\n        (bool success, ) = receiver.call.value(txValue)(transactions[_txIndex].data);\r\n        require(success, 'tx failed');\r\n        \r\n        //receiver.transfer(value);\r\n\r\n        emit TransactionExecuted(receiver, txValue, msg.sender);\r\n    }\r\n\r\n    function revokeConfirmation(uint256 _txIndex) public onlyOwner() txExists(_txIndex) notExecuted(_txIndex) {\r\n        require(isConfirmed[_txIndex][msg.sender] == true, 'you havent confirmed this transaction');\r\n\r\n        isConfirmed[_txIndex][msg.sender] = false;\r\n        transactions[_txIndex].confirmationsNr -= 1;\r\n\r\n        emit ConfirmationRevoked(_txIndex, msg.sender);\r\n    }\r\n    \r\n    function transactionCount() public view onlyOwner() returns(uint256) {\r\n        return transactions.length;\r\n    }\r\n\r\n    //this function is available for version 0.7.5 (returning an array of structs)\r\n    /*function getTransactions() public onlyOwner() returns(Transaction[] memory){\r\n        return transactions;\r\n    }*/\r\n    \r\n    function deposit() payable external returns(uint256) {\r\n        require(msg.value > 0, 'you must send more than 0');\r\n        funds[msg.sender] += msg.value;\r\n        emit Deposit(msg.sender, msg.value, address(this).balance);\r\n        return address(this).balance;\r\n    }\r\n    \r\n    function balance() public view onlyOwner() returns(uint256) {\r\n        return address(this).balance;\r\n    }\r\n}\r\n",
  "sourcePath": "C:/Users/Admin/Documents/Ethereum course 201/multi-sig-wallet-2/contracts/MultiSigWallet.sol",
  "compiler": {
    "name": "solc",
    "version": "0.5.8+commit.23d335f2.Emscripten.clang"
  },
  "schemaVersion": "3.0.16",
  "updatedAt": "2020-12-23T01:15:26.206Z",
  "devdoc": {
    "methods": {}
  },
  "userdoc": {
    "methods": {}
  }
}